:020000040800F2
:10000000080F00202D020008350200081303000825
:10001000390200083B0200083D0200080000000011
:100020000000000000000000000000003F02000887
:1000300041020008000000009B0200086D2B000830
:10004000470200084702000847020008470200086C
:1000500047020008470200085D0A0008AB0A0008D2
:10006000BD0A0008CF0A0008E10A0008470200089C
:10007000470200084702000847020008190A000862
:10008000470200084702000847020008470200082C
:10009000470200084702000847020008F30A000868
:1000A000470200084702000847020008470200080C
:1000B000470200086D2C00084702000847020008AC
:1000C00047020008470200084702000847020008EC
:1000D0004702000871330008470200084702000881
:1000E0006F0A00084702000847020008470200089C
:1000F00047020008470200084702000847020008BC
:1001000047020008470200084702000847020008AB
:10011000470200084702000847020008470200089B
:10012000470200084702000847020008470200088B
:1001300000F002F800F063F80AA090E8000C824496
:100140008344AAF10107DA4501D100F058F8AFF273
:10015000090EBAE80F0013F0010F18BFFB1A43F0A5
:1001600001031847A0D80000C0D800000A444FF08F
:10017000000C10F8013B13F0070408BF10F8014B06
:100180001D1108BF10F8015B641E05D010F8016B4B
:10019000641E01F8016BF9D113F0080F1EBF10F8AF
:1001A000014BAD1C0C1B09D16D1E58BF01F801CBD2
:1001B000FAD505E014F8016B01F8016B6D1EF9D555
:1001C0009142D6D37047000000230024002500266A
:1001D000103A28BF78C1FBD8520728BF30C148BFAA
:1001E0000B6070471FB500F0AFFB0400002000213A
:1001F0000BF096FB401C60601FBD10B510BD00F0F9
:100200007EFB1146FFF7EEFF00F001FC00F0AEFBB5
:1002100003B4FFF7F2FF03BC00F0F2FB002804D0A8
:1002200090FAA0F0B0FA80F0401C7047094880476F
:1002300009480047FEE7FEE7FEE7FEE7FEE7FEE7C8
:10024000FEE7FEE7FEE7FEE704480549054A064BE0
:1002500070470000152C0008310100080809002033
:10026000080F0020080B0020080B0020EFF310807F
:1002700072B6704780F310887047334A1368012BB9
:1002800004D04FF001031360304A1060304A11600F
:1002900030484FF0805101607047EFF3108272B622
:1002A0002948016891B14FF00001016027480168B9
:1002B00029B1EFF3098121E9F00F006801602449B9
:1002C00009680968B1E8F00F81F3098882F31088A2
:1002D0004EF0040E70471E4908601C494FF00000A4
:1002E000086019494FF0010008601B484FF47F0176
:1002F000D0F8002041EA0201016016484FF0805119
:10030000016016480068006880F3088861B662B62C
:1003100070471EF0040F0CBFEFF30880EFF3098065
:1003200020E9F00F40F804ED1EF0040F0CBF80F33D
:10033000088880F3098800B506F0B2FF5DF804EB89
:100340004EF0040E704700005003002048030020C8
:100350004C03002004ED00E020ED00E008ED00E09B
:1003600053EA020C00F069802DE9F04B4FF00006D3
:10037000002B1FBFB3FA83F503FA05F424FA05F640
:100380005E4012BF1643B2FA82F502FA05F4C5F1D7
:1003900020051EBF22FA05FC44EA0C04203556EA6B
:1003A000044C4FEA144418BF641C4FF000084FF08F
:1003B0000009904271EB030C39D3002919BFB1FA3F
:1003C00081F701FA07F6B0FA80F700FA07F6C7F1ED
:1003D00020071EBF20FA07FC46EA0C062037B6FBB2
:1003E000F4FCA7EB0507103F07F01F0BCBF120062D
:1003F0000CFA0BFB2CFA06F644BFB3460026202F5E
:10040000A4BF5E464FF0000B5BEA060C08BF4FF03E
:10041000010B19EB0B09ABFB027C48EB0608C01B78
:1004200006FB02CC0BFB03CC71EB0C01C1E70B46C6
:10043000024641464846BDE8F08B13B54FF0000038
:100440004FF00001AFF30080BDE81C40704770B56D
:10045000064600F0BDF90468054630460A22002130
:1004600000F0BAF92C6070BD40EA010310B59B079B
:100470000FD1042A0DD310C808C9121F9C42F8D00E
:1004800020BA19BA884201D9012010BD4FF0FF30BF
:1004900010BD1AB1D30703D0521C07E0002010BDD5
:1004A00010F8013B11F8014B1B1B07D110F8013B61
:1004B00011F8014B1B1B01D1921EF1D1184610BD42
:1004C00040EA0103024630B59B0710D14FF00134DA
:1004D00000E008C208C91D1B9D4315EAC41FF8D0DF
:1004E00013F0FF0102F8011B0DD01B0AF8E711F809
:1004F000013B002B02F8013B05D011F8013B002B1A
:1005000002F8013BF3D130BD10B5431C02E010F8F6
:10051000011B71B18107FAD14FF0013202C88C1A68
:100520008C4314EAC211F9D0C01A0A0603D0C01EC7
:1005300010BDC01A10BD0A0401D0801E10BD0902F2
:10054000FCD0401E10BD40EA010370B59B072ED1C0
:100550004FF00136042A2AD308C810C99D1B9D43B9
:10056000121F15EAC61517D0D8B2E1B2401A50EAE8
:10057000056110D198B2A1B2401A50EA05410AD1E2
:1005800023F07F4024F07F41401A50EA052102D138
:10059000180EA0EB146070BDA342DBD018BA21BACC
:1005A000884201D9012070BD4FF0FF3070BD0AB9FB
:1005B000002070BD10F8013B11F8014B63B1A3425C
:1005C0000AD1521E08D010F8013B11F8014B1BB1A3
:1005D000A34201D1521EEDD1181B70BD421E12F86C
:1005E000013F002BFBD111F8013B002B02F8013B2E
:1005F000F9D17047032A40F2308010F0030C00F06C
:10060000158011F8013BBCF1020F624498BF11F84C
:1006100001CB00F8013B38BF11F8013BA2F1040205
:1006200098BF00F801CB38BF00F8013B11F003037D
:1006300000F02580083AC0F0088051F8043B083AE1
:1006400051F804CBA0E80810F5E7121D5CBF51F883
:10065000043B40F8043BAFF30080D20724BF11F8FD
:10066000013B11F801CB48BF11F8012B24BF00F862
:10067000013B00F801CB48BF00F8012B704710B5D3
:10068000203AC0F00B80B1E81850203AA0E818508A
:10069000B1E81850A0E81850BFF4F5AF5FEA027C4B
:1006A00024BFB1E81850A0E8185044BF18C918C0BA
:1006B000BDE810405FEA827C24BF51F8043B40F85B
:1006C000043B08BF7047D20728BF31F8023B48BF40
:1006D00011F8012B28BF20F8023B48BF00F8012B7E
:1006E00070474FF000020429C0F0128010F0030C94
:1006F00000F01B80CCF1040CBCF1020F18BF00F815
:10070000012BA8BF20F8022BA1EB0C0100F00DB8C3
:100710005FEAC17C24BF00F8012B00F8012B48BF21
:1007200000F8012B70474FF0000200B513469446C5
:100730009646203922BFA0E80C50A0E80C50B1F139
:100740002001BFF4F7AF090728BFA0E80C5048BF4D
:100750000CC05DF804EB890028BF40F8042B08BFEB
:10076000704748BF20F8022B11F0804F18BF00F8E7
:10077000012B704710B5044610F0030F08BF11F0AD
:10078000030F40F015804FF0013E121FC0F20E80A3
:1007900051F8043BA3EB0E0C2CEA030C1CEACE1C14
:1007A00008BF40F8043BF0D0A1F1040102F10402BB
:1007B000521E08DB11F8013B002B00F8013BF7D17A
:1007C0001146FFF78EFF204610BD704770477047F7
:1007D00000487047A40800202DE9F04791460F46D5
:1007E00080460446002614F8015B2DB100F030F875
:1007F0000068405DC007F6D12B2D02D02D2D18D0FA
:10080000641E4A463946204600F02AF827B1396866
:10081000A14201D1C7F800804FF0020471050BD549
:100820004042002803DDFFF7D3FF0460A007BDE8C6
:10083000F08746F48066E4E70028F8DAFFF7C8FF9F
:1008400004606FF00040F2E700487047A408002001
:1008500010B500F079F8001D10BD00BFC5B0000054
:100860002DE9F05F824615468B4600270AF1010408
:10087000B9460078302801D09DB113E014F8010B7F
:100880000127782803D0582801D045B10AE00DB1DE
:10089000102D07D1002714F8010B102502E00825C0
:1008A00000E00A250026B0460EE005FB080005FB27
:1008B00006F101271FFA80F801EB1046B6F5803FDC
:1008C00000D3B94614F8010B294600F041F800287E
:1008D000EBDABBF1000F05D00FB1641E00E0544607
:1008E000CBF80040B9F1000F06D0FFF771FF0221ED
:1008F0000160C81EBDE8F09F48EA0640FAE7754669
:10090000FFF7A2FFAE4605006946534620F00700F8
:10091000854618B020B5FFF797FCBDE820404FF0A2
:1009200000064FF000074FF000084FF0000B21F0D9
:100930000701AC46ACE8C009ACE8C009ACE8C009A6
:10094000ACE8C0098D46704700487047C4080020D5
:100950003A2800D2303820F02002412A01D3A2F1F7
:100960003700884201D34FF0FF30704710B504467E
:10097000AFF300802046BDE81040FFF749BC0000FF
:100980004FF0013C50F8042B51F8043B9A4221D11E
:10099000A2EB0C03934313EACC1317D150F8042BAA
:1009A00051F8043B9A4215D1A2EB0C03934313EA8E
:1009B000CC130BD150F8042B51F8043B9A4209D1C7
:1009C000A2EB0C03934313EACC13DBD04FF00000EF
:1009D000704700BFD01A01BAB1FA81F101F01801D5
:1009E00022FA01F0CB40C1F12001DBB2C0B2C01A43
:1009F0002CFA01F3D11A914311EAC311E6D17047E1
:100A000001491820ABBEFEE726000200704710B572
:100A100009F0F1FC002010BD10B507F0DFF8034825
:100A200000F098F907F004F910BD0000F806002066
:100A300030B590F840500124AC40C56B6C60046840
:100A400063604468102C04D10468A2600468E1600B
:100A500003E00468A1600468E26030BD10B507F0EF
:100A6000BDF8012000F09EFC07F0E2F810BD10B5C3
:100A700007F0B4F84FF4806000F094FC4FF400608D
:100A800000F090FC4FF4805000F08CFC4FF40050CC
:100A900000F088FC4FF4804000F084FC4FF40040EC
:100AA00000F080FC07F0C4F810BD10B507F096F810
:100AB000022000F077FC07F0BBF810BD10B507F07E
:100AC0008DF8042000F06EFC07F0B2F810BD10B5F0
:100AD00007F084F8082000F065FC07F0A9F810BDC5
:100AE00010B507F07BF8102000F05CFC07F0A0F8D0
:100AF00010BD10B507F072F8202000F053FC402024
:100B000000F050FC802000F04DFC4FF4807000F0AD
:100B100049FC4FF4007000F045FC07F089F810BD67
:100B200070B50446002594F82100022803D0042063
:100B3000A0630125C1E02068006820F00E00216854
:100B400008602068006820F00100216808605C49A6
:100B50002068884252D95A4978392068884201D1A0
:100B6000012047E0564964392068884201D11020AD
:100B700040E0534950392068884201D1801539E05E
:100B80004F493C392068884201D1801432E04C49F9
:100B900028392068884202D14FF480302AE0484941
:100BA00014392068884202D14FF4801022E0444971
:100BB0002068884201D140041CE0424920688842F4
:100BC00001D1012016E03F4914312068884201D14B
:100BD00010200FE03B4928312068884201D1801560
:100BE00008E038493C312068884201D1801401E096
:100BF0004FF480303349091F086051E0304978399B
:100C00002068884201D1012047E02D4964392068DD
:100C1000884201D1102040E029495039206888429B
:100C200001D1801539E026493C392068884201D13C
:100C3000801432E0224928392068884202D14FF4DA
:100C400080302AE01E4914392068884202D14FF4CE
:100C5000801022E01A492068884201D140041CE03B
:100C600018492068884201D1012016E01549143145
:100C70002068884201D110200FE0124928312068F5
:100C8000884201D1801508E00E493C312068884235
:100C900001D1801401E04FF4803009498039486067
:100CA000012084F8210000BF002084F8200000BF4C
:100CB000606B10B12046616B8847284670BD00000C
:100CC0008000024008040240014609B90120704733
:100CD0000868006820F001000A68106000200A68B7
:100CE00010600A6850600A6890600A68D060174A0D
:100CF000086890420BD2164A0868801A1422B0FB8A
:100D0000F2F08000086412480838C8630AE00F4A0D
:100D10000868801A1422B0FBF2F0800008640B48C7
:100D20000838C86391F8402001209040CA6B506099
:100D300000208862C86208634863886381F82100E4
:100D400000BF81F8200000BF00BFC0E708040240D8
:100D50000800024070B50446E06B0568206806682C
:100D600094F84010042088402840002875D006F0F0
:100D700004000028FAD02068006800F0200028B99C
:100D80002068006820F0040021680860D5492068C8
:100D9000884254D9D34978392068884201D1042047
:100DA00049E0D04964392068884201D1402042E0BE
:100DB000CC4950392068884201D100153BE0C9492F
:100DC0003C392068884202D14FF4804033E0C54965
:100DD00028392068884202D14FF480202BE0C14995
:100DE00014392068884202D14FF4800023E0BD49C5
:100DF0002068884201D1C0041DE0BB4920688842B8
:100E000001D1042017E0B84914312068884201D18B
:100E1000402010E0B44928312068884201D10015F3
:100E200009E0B1493C312068884202D14FF480404A
:100E300001E04FF48020AC49091F086054E0A94943
:100E400078392068884201D104204AE0A5496439F4
:100E50002068884202D1402043E04CE0A14950394B
:100E60002068884201D100153BE09E493C3920684A
:100E7000884202D14FF4804033E09A4928392068F3
:100E8000884202D14FF480202BE096491439206823
:100E9000884202D14FF4800023E0924920688842C2
:100EA00001D1C0041DE090492068884201D104208E
:100EB00017E08D4914312068884201D1402010E0AC
:100EC000894928312068884201D1001509E0864906
:100ED0003C312068884202D14FF4804001E04FF459
:100EE0008020804980394860E06A002802D020468E
:100EF000E16A8847F4E094F84010022088402840D6
:100F0000002871D006F002000028FAD0206800689E
:100F100000F0200040B92068006820F00A00216835
:100F20000860012084F821006E492068884254D965
:100F30006C4978392068884201D1022049E069492A
:100F400064392068884201D1202042E06549503947
:100F50002068884201D140153BE062493C39206855
:100F6000884202D14FF4005033E05E4928392068AE
:100F7000884202D14FF400302BE05A4914392068DE
:100F8000884202D14FF4001023E05649206888427D
:100F900001D180041DE054492068884201D102201B
:100FA00017E0514914312068884201D1202010E017
:100FB0004D4928312068884201D1401509E04A494D
:100FC0003C312068884202D14FF4005001E04FF4D8
:100FD00000304549091F086054E0424978392068CB
:100FE000884202D102204AE057E03E496439206835
:100FF000884201D1202042E03A4950392068884295
:1010000001D140153BE037493C392068884202D184
:101010004FF4005033E0334928392068884202D128
:101020004FF400302BE02F4914392068884202D158
:101030004FF4001023E02B492068884201D180043E
:101040001DE029492068884201D1022017E0264985
:1010500014312068884201D1202010E02249283133
:101060002068884201D1401509E01F493C312068C1
:10107000884202D14FF4005001E04FF4003019498A
:101080008039486000BF002084F8200000BFA06ABB
:1010900030B32046A16A884722E094F84010082027
:1010A00088402840E0B106F00800C8B12068006818
:1010B00020F00E002168086094F84010012088405C
:1010C000E16B48600120A06384F8210000BF00208C
:1010D00084F8200000BF206B10B12046216B8847A8
:1010E00070BD00008000024008040240014600225A
:1010F00009B9012070471E4B086898420BD21D4B5E
:101100000868C01A1423B0FBF3F080000864194883
:101110000838C8630AE0164B0868C01A1423B0FBED
:10112000F3F08000086412480838C863022081F890
:1011300021000868026843F6F0708243D1E9010398
:101140001843CB6818430B6918434B6918438B69E4
:101150001843CB6918430243086802600020886383
:10116000012081F82100002081F8200000BFC1E7A4
:1011700008040240080002402DE9F04104460D46F3
:1011800016461F464FF0000800BF94F820000128C3
:1011900002D10220BDE8F081012084F8200000BFC8
:1011A00094F8210001282CD1022084F8210000208D
:1011B000A0632068006820F00100216808603B46B9
:1011C000324629462046FFF733FCE06A30B12068FA
:1011D000006840F00E00216808600BE0206800689D
:1011E00020F00400216808602068006840F00A00D0
:1011F000216808602068006840F0010021680860EC
:1012000006E000BF002084F8200000BF4FF0020875
:101210004046BFE72DE9F04102460B4600208BE037
:101220000127874007EA030100297DD0464F4FEA96
:10123000900C57F82C4087074FEA177C0F2707FAC6
:101240000CF73C40414FBA4201D1002719E0404F12
:10125000BA4201D1012714E03E4FBA4201D1022720
:101260000FE03D4FBA4201D103270AE03B4FBA429B
:1012700001D1042705E03A4FBA4201D1052700E029
:1012800006274FEA807C4FEA1C7C07FA0CF7A7423E
:1012900030D187074FEA177C0F2707FA0CF42A4F43
:1012A0004FEA900C57F82C70A743DFF89CC04FEA28
:1012B00090084CF828702B4F3F688F43DFF8A4C08C
:1012C000CCF800700CF104073F688F430CF1040C5C
:1012D000CCF800700CF104073F688F430CF1040C4C
:1012E000CCF800700CF104073F688F430CF1040C3C
:1012F000CCF80070FF2901D8174600E0171D3D46C5
:10130000FF2901D8870002E0A0F10807BF003E4690
:101310002F684FF00F0C0CFA06FC27EA0C074FF071
:10132000040C0CFA06FC00E005E047EA0C072F600D
:10133000D7688F43D760401C23FA00F7002F7FF453
:101340006FAFBDE8F08100000800014000080140D7
:10135000000C014000100140001401400018014041
:10136000001C01400004014070B50546284602F00B
:10137000AFFC044604EB4400094901EB80004068DF
:1013800058B104EB44020B4603EB8202906804EB75
:10139000440203EB82025168884700BF70BD000021
:1013A0002C01002010B5044604480068204020B1FC
:1013B000024804602046FFF7D7FF10BD1404014027
:1013C0002DE9F847024600239C467BE14FF00108D7
:1013D00008FA03F4D1F8008008EA0400A0427DD1A5
:1013E000DFF8F4A2D1F80480A8EB0A09D0453AD07E
:1013F00014DCB8F1030F50D009DCB8F1000F31D084
:10140000B8F1010F1CD0B8F1020F49D120E0B8F1BA
:10141000110F18D0B8F1120F42D11EE0B9F5881F94
:1014200025D006DCB9F5803F20D0B9F5801F37D133
:101430001AE0B9F5001F18D0B9F5041F30D117E034
:10144000D1F80CC02DE0D1F80C8008F1040C28E094
:10145000D1F80C8008F1080C23E0D1F80C8008F1D9
:101460000C0C1EE000BF00BF00BF00BF00BF00BFEC
:10147000D1F80880B8F1000F02D14FF0040C0BE056
:10148000D1F80880B8F1010F03D14FF0080C1461B6
:1014900002E04FF0080C546103E04FF0000C00E054
:1014A00000BF00BFFF2801D8904601E002F1040808
:1014B0004646FF2802D84FEA830803E0A3F1080854
:1014C0004FEA88084746D6F800804FF00F0909FA1E
:1014D00007F928EA09080CFA07F900E07AE048EA77
:1014E0000908C6F80080D1F8048008F08058B8F1E7
:1014F000805F6FD100BFDFF8E481D8F8188048F032
:101500000108DFF8D891C9F81880C846D8F81880C3
:1015100008F00108CDF8008000BF00BF4FEAB938DD
:101520004FEA930958F829504FEA83784FEA18791F
:101530004FF00F0808FA09F825EA0805DFF8A0813E
:10154000424502D14FF0000824E0DFF8988142457F
:1015500002D14FF001081DE0DFF88C81424502D135
:101560004FF0020816E0DFF88481424502D14FF0C7
:1015700003080FE0DFF87881424502D14FF00408FC
:1015800008E0DFF87081424502D14FF0050801E024
:101590004FF006084FEA83794FEA197908FA09F8FB
:1015A00048EA0505DFF850814FEA930948F82950C9
:1015B000D1F8048008F48038B8F5803F0BD1DFF80B
:1015C0003C81D8F8008048EA0008DFF83091C9F87B
:1015D00000800AE075E0DFF82481D8F8008028EA6E
:1015E0000008DFF81891C9F80080D1F8048008F4E9
:1015F0000038B8F5003F0ED1DFF8008108F104088B
:10160000D8F8008048EA0008DFF8F09009F10409F2
:10161000C9F800800DE0DFF8E48008F10408D8F88C
:10162000008028EA0008DFF8D49009F10409C9F81D
:101630000080D1F8048008F48018B8F5801F0ED11E
:10164000DFF8B88008F10808D8F8008048EA0008F8
:10165000DFF8A89009F10809C9F800800DE0DFF86B
:101660009C8008F10808D8F8008028EA0008DFF814
:101670008C9009F10809C9F80080D1F8048008F4B9
:101680000018B8F5001F0ED1DFF8708008F10C08C3
:10169000D8F8008048EA0008DFF8609009F10C09EA
:1016A000C9F800800DE0DFF8548008F10C08D8F884
:1016B000008028EA0008DFF8449009F10C09C9F815
:1016C00000805B1CD1F8008028FA03F8B8F1000F05
:1016D0007FF47CAEBDE8F8870000111000100240D6
:1016E00000080140000C01400010014000140140BE
:1016F00000180140001C01400800014000040140A6
:10170000024693680B400BB1012000E000207047B7
:101710000AB1016101E00B040361704710B508F0E4
:1017200011FA4FF47A714843B0FBF1F010BD00009C
:101730000348006803490978084401490860704774
:10174000780300208003002010B50848006840F0AE
:10175000100006490860032000F0A8F8002000F0FF
:1017600007F800F009F8002010BD0000002002403A
:10177000014600207047000008B500BF114880698D
:1017800040F001000F4988610846806900F00100BF
:10179000009000BF00BF00BF0846C06940F0805005
:1017A000C8610846C06900F08050009000BF00BFCB
:1017B00000BF0549486820F0E06040F000704860D4
:1017C00000BF08BD001002400000014010B50146F6
:1017D0000846002817DB00F01F0301229A400B4B3C
:1017E000440943F8242000BF00BF00BFBFF34F8F60
:1017F00000BF00BF00BF00BF00BF00BFBFF36F8FBF
:1018000000BF00BF00BF00BF10BD000080E100E0CE
:1018100001460846002809DB00F01F0301229A4018
:1018200043099B0003F1E023C3F8002100BF704788
:101830002DE9F05F80460D461646002701F0A6FD13
:10184000074639462A46334601F00700C0F1070A29
:10185000BAF1040F02D94FF0040A01E0C0F1070AFF
:10186000D14600F1040ABAF1070F02D24FF0000A84
:1018700001E0A0F1030AD4464FF0010A0AFA09FA7E
:10188000AAF1010A0AEA020A0AFA0CFA4FF0010B5D
:101890000BFA0CFBABF1010B0BEA030B4AEA0B044E
:1018A0002146404601F07AFDBDE8F09F00BF00F000
:1018B0000702064B19684FF6FF031940044B0B4310
:1018C00043EA0221014B196000BF70470CED00E0B4
:1018D0000000FA0570B504460D460CB9012070BD34
:1018E0005A48006800F00700A8420ED25748006826
:1018F00020F007002843554908600846006800F0BA
:101900000700A84201D00120E9E7207800F002009A
:1019100002281DD1207800F00400042805D14C488D
:10192000406840F4E0604A494860207800F00800D0
:10193000082805D14648406840F460504449486052
:101940004348406820F0F000A168084340494860DF
:10195000207800F0010078B36068012806D13C4887
:10196000006800F4003090B90120B8E760680228F0
:1019700006D13748006800F0007040B90120AEE79A
:101980003348006800F0020008B90120A7E730489A
:10199000406820F00300616808432D494860FFF764
:1019A000BDFE064609E0FFF7B9FE801B41F2883113
:1019B000884202D9032092E707E02548406800F0FA
:1019C0000C006168B0EB810FEDD12048006800F099
:1019D0000700A8420ED91D48006820F007002843E0
:1019E0001A4908600846006800F00700A84201D0C4
:1019F000012074E7207800F00400042807D114487F
:101A0000406820F4E060E1680843114948602078AC
:101A100000F00800082808D10D48406820F4605004
:101A2000216940EAC1000A49486000F03FF80849CE
:101A30004968C1F30311074A515CC8400649086070
:101A400006480068FFF794FE002048E700200240A7
:101A500000100240CACF0008740300207C0300205D
:101A600001480068704700007403002000B5FFF7CC
:101A7000F7FF04494968C1F30221034A515CC84099
:101A800000BD000000100240DACF000800B5FFF7EB
:101A9000E7FF04494968C1F3C221034A515CC840C9
:101AA00000BD000000100240DACF0008F0B585B09C
:101AB0000FF26C0C9CE8E01001A8A0E8E0101CA557
:101AC0002D68009500210022002300240020194DDC
:101AD000696801F00C05F5B1042D02D0082D19D16B
:101AE00001E0154819E001ADC1F38346AC5D01F496
:101AF000803555B10F4D6D68C5F340451DF8052083
:101B00000D4D6543B5FBF2F302E00C4D04FB05F30C
:101B1000184602E000BF084800BF00BF05B0F0BD96
:101B200002030405060708090A0B0C0D0E0F10101E
:101B3000010200000010024000127A0000093D007E
:101B4000F8B504460CB90120F8BD207800F001007A
:101B5000002878D0F848406800F00C0004280CD029
:101B6000F548406800F00C00082811D1F2484068A0
:101B700000F48030B0F5803F0AD1EF48006800F4EF
:101B8000003000285FD0606800285CD10120DBE7CE
:101B900000BF6068B0F5803F06D1E748006840F4B8
:101BA0008030E549086028E0606858B9E24800687C
:101BB00020F48030E04908600846006820F4802066
:101BC00008601AE06068B0F5A02F0BD1DA48006811
:101BD00040F48020D84908600846006840F480300E
:101BE00008600AE0D448006820F48030D2490860D8
:101BF0000846006820F48020086000BF606888B153
:101C0000FFF78CFD054606E0FFF788FD401B6428C2
:101C100001D9032098E7C848006800F40030002884
:101C2000F2D010E0FFF77AFD054606E0FFF776FDFB
:101C3000401B642801D9032086E7BF48006800F4F0
:101C400000300028F2D1207800F00200022857D19D
:101C5000B948406800F00C0050B1B748406800F047
:101C60000C00082818D1B448406800F4803098B9B6
:101C7000B148006800F0020020B12069012801D0BD
:101C8000012061E7AC48006820F0F800616940EA93
:101C9000C100A949086033E02069E8B10120A749E3
:101CA0000860FFF73BFD054606E0FFF737FD401BE8
:101CB000022801D9032047E79F48006800F002008E
:101CC0000028F2D09C48006820F0F800616940EAE2
:101CD000C1009949086013E0002098490860FFF7A7
:101CE0001DFD054606E0FFF719FD401B022801D93E
:101CF000032029E79048006800F002000028F2D194
:101D0000207800F0080008282DD1A069B8B1012082
:101D10008B490860FFF702FD054606E0FFF7FEFC71
:101D2000401B022801D903200EE78348406A00F0D7
:101D300002000028F2D0012000F004FF13E0002090
:101D40007F490860FFF7EAFC054606E0FFF7E6FC7E
:101D5000401B022801D90320F6E67748406A00F0CC
:101D600002000028F2D1207800F00400042873D18A
:101D700000277148C06900F0805070B900BF6E48FC
:101D8000C06940F080506C49C8610846C06900F0E5
:101D90008050009000BF00BF01276A48006800F42F
:101DA0008070B0B96748006840F480706549086089
:101DB000FFF7B4FC054606E0FFF7B0FC401B6428C3
:101DC00001D90320C0E65F48006800F48070002855
:101DD000F2D000BFE068012806D15748006A40F001
:101DE00001005549086227E0E06858B95248006A86
:101DF00020F00100504908620846006A20F0040003
:101E0000086219E0E06805280BD14B48006A40F0F1
:101E10000400494908620846006A40F0010008626F
:101E20000AE04548006A20F001004349086208467C
:101E3000006A20F00400086200BFE068A0B1FFF76C
:101E40006DFC054609E0FFF769FC401B41F2883153
:101E5000884202D9032077E622E03748006A00F082
:101E600002000028EFD012E0FFF758FC054608E01A
:101E7000FFF754FC401B41F28831884201D903200E
:101E800062E62D48006A00F002000028F0D1012F20
:101E900005D12948C06920F080502749C86100BF9A
:101EA000E069C8B32448406800F00C00082860D0FE
:101EB000E069022848D1002020490866FFF72EFC7F
:101EC000054606E0FFF72AFC401B022801D9032043
:101ED0003AE61948006800F000700028F2D1206A44
:101EE000B0F5803F07D11448406820F40030A16865
:101EF000084311494860D4E9080108430E4949687C
:101F000021F4741108430C49486001200B4908660C
:101F1000FFF704FC054607E03DE0FFF7FFFB401B31
:101F2000022801D903200FE60348006800F0007082
:101F30000028F2D02FE000000010024000004242D2
:101F40008004424200700040002014490866FFF7F8
:101F5000E5FB054606E0FFF7E1FB401B022801D93F
:101F60000320F1E50E48006800F000700028F2D16F
:101F700011E0E069012800D1E6E50948466806F469
:101F80008031206A814204D106F47011606A814276
:101F900001D00120D8E50020D6E500000000424233
:101FA00000100240042808D14FF0E021096941F0F7
:101FB00004014FF0E022116107E04FF0E0210969D0
:101FC00021F004014FF0E0221161704770B5044622
:101FD0002546681EB0F1807F01D301200FE0681E06
:101FE0004FF0E02148610F214FF0FF3001F0D6F9AA
:101FF00000204FF0E021886107200861002070BDBB
:102000007047704710B5024600BF92F83C000128A7
:1020100001D1022010BD012082F83C0000BF022047
:1020200082F83D00106843681068846823F07003EC
:102030000868034324F08004486804431068436040
:1020400010688460012082F83D0000BF002082F803
:102050003C0000BF00BFDDE710B504460CB901200D
:1020600010BD94F83D0028B9002084F83C002046BB
:1020700000F00CF8022084F83D00211D206800F0DB
:1020800001FE012084F83D000020E9E710B586B08C
:1020900004460020029003900490059014492068A3
:1020A000884223D100BF1348C06940F002001149A3
:1020B000C8610846C06900F00200019000BF00BF7F
:1020C00000BF0846806940F00400886108468069C6
:1020D00000F00400019000BF00BF802002900220A9
:1020E0000390059002A90448FFF76AF906B010BDF5
:1020F000000400400010024000080140014608684A
:10210000C06840F001000B68D8600868806800F083
:102110000702062A05D00868006840F001000B6835
:1021200018600020704701460868C06820F0010070
:102130000A68D06000BF0868006A41F211121040BE
:1021400050B90868006A9210104028B90868006801
:1021500020F001000A68106000BF002070472DE9E0
:10216000F04104460D4600BF94F83C00012802D11E
:102170000220BDE8F081012084F83C0000BF02206D
:1021800084F83D002068866826F0770626F47F46AE
:10219000206886602868502833D00CDC202850D076
:1021A00004DC00284BD0102851D149E0302849D018
:1021B00040284CD139E060282DD0702807D0B0F5E8
:1021C000805F03D0B0F5005F41D10DE040E0D5E97C
:1021D00002136A68206800F0B4FD2068866846F043
:1021E00077062068866033E0D5E902136A682068C4
:1021F00000F0A7FD2068806840F480402168886076
:1022000026E0EA686968206800F08CFE50212068AA
:1022100000F0A2FD1CE0EA686968206800F095FE05
:102220006021206800F098FD12E0EA686968206883
:1022300000F078FE4021206800F08EFD08E000BF2D
:1022400000BF00BF2968206800F086FD00E000BFE5
:1022500000BF012084F83D0000BF002084F83C004E
:1022600000BF00BF85E7024600BF92F83C0001288E
:1022700001D102207047012082F83C0000BF0220FB
:1022800082F83D0010684161012082F83D0000BFE6
:10229000002082F83C0000BF00BFEBE7704710B59C
:1022A000044620680069C0F34000D8B12068C068C7
:1022B000C0F34000B0B16FF0020021680861012056
:1022C00020772068806900F0030018B12046FFF7EE
:1022D000E5FF05E0204600F0D9F8204600F076F949
:1022E0000020207720680069C0F38000D8B1206802
:1022F000C068C0F38000B0B16FF0040021680861CD
:10230000022020772068806900F4407018B12046D0
:10231000FFF7C4FF05E0204600F0B8F8204600F0C3
:1023200055F90020207720680069C0F3C000D8B1BB
:102330002068C068C0F3C000B0B16FF00800216829
:102340000861042020772068C06900F0030018B1FC
:102350002046FFF7A3FF05E0204600F097F820464F
:1023600000F034F90020207720680069C0F30010E5
:10237000D8B12068C068C0F30010B0B16FF0100091
:1023800021680861082020772068C06900F4407047
:1023900018B12046FFF782FF05E0204600F076F8EE
:1023A000204600F013F9002020772068006900F033
:1023B000010058B12068C06800F0010030B16FF032
:1023C000010021680861204600F072F92068006968
:1023D000C0F3C01058B12068C068C0F3C01030B15D
:1023E0006FF08000216808612046FFF709FE206831
:1023F0000069C0F3801058B12068C068C0F3801035
:1024000030B16FF0400021680861204600F05EF9AD
:1024100020680069C0F3401058B12068C068C0F35C
:10242000401030B16FF02000216808612046FFF7AE
:10243000E8FD10BD10B586B0044600200290039060
:10244000049005900E492068884216D100BF0D48BF
:10245000806940F004000B4988610846806900F0FB
:102460000400019000BF00BF4020029002200390B2
:10247000059002A90448FEF7A3FF06B010BD0000B6
:10248000000400400010024000080140704770B591
:1024900004460D46164600BF94F83C00012801D1C1
:1024A000022070BD012084F83C0000BF022084F8A7
:1024B0003D0036B1042E1BD0082E31D00C2E5ED13B
:1024C00045E02946206800F051FC2068806940F012
:1024D0000800216888612068806920F00400216874
:1024E000886120688069296908432168886147E01C
:1024F0002946206800F072FC2068806940F4006082
:10250000216888612068806920F480602168886182
:1025100020688069296940EA0120216888612FE0EC
:102520002946206800F098FC2068C06940F0080047
:102530002168C8612068C06920F004002168C86172
:102540002068C069296908432168C86118E02946E4
:10255000206800F0BDFC2068C06940F4006021687C
:10256000C8612068C06920F480602168C861206863
:10257000C069296940EA01202168C86100E000BF04
:1025800000BF012084F83D0000BF002084F83C001B
:1025900000BF00BF85E710B504460CB9012010BD8F
:1025A00094F83D0028B9002084F83C00204600F053
:1025B0000CF8022084F83D00211D206800F062FB29
:1025C000012084F83D000020E9E7704770470000D3
:1025D00070B504460E4601223146206800F0A0FB8B
:1025E0000F492068884203D00E492068884201D1F3
:1025F000012000E0002028B12068406C40F4004039
:10260000216848642068806800F00705062D05D021
:102610002068006840F0010021680860002070BD5B
:10262000002C01400034014030B504460D46002224
:102630002946206800F074FB1B492068884203D0BB
:102640001A492068884201D1012000E0002090B1A1
:1026500000BF2068006A41F21111084050B920689B
:10266000006A8910084028B92068406C20F40040B6
:102670002168486400BF00BF2068006A41F2111160
:10268000084050B92068006A8910084028B92068BD
:10269000006820F001002168086000BF012084F874
:1026A0003D00002030BD0000002C014000340140FE
:1026B00010B5044603492068884202D1024804F05C
:1026C00047F910BD000400401002002070470000D0
:1026D00070B504462CB94FF45372034903A003F0BC
:1026E000D7FC254670BD00008DCB0008687561726F
:1026F0007420213D204E554C4C0000002DE9F04740
:102700000446206805682068C668206847694FF05D
:102710000008C14605F00F08B8F1000F0AD105F016
:10272000200038B106F0200020B1204600F0C9FC9E
:10273000BDE8F087B8F1000F6DD007F0010018B9BF
:1027400006F49070002866D005F0010030B106F460
:10275000807018B1E06B40F00100E06305F0040008
:1027600030B107F0010018B1E06B40F00200E06307
:1027700005F0020030B107F0010018B1E06B40F045
:102780000400E06305F0080030B107F0010018B163
:10279000E06B40F00800E063E06B68B305F02000F8
:1027A00028B106F0200010B1204600F08AFC206815
:1027B0004069C0F38019E06B00F0080010B9B9F16E
:1027C000000F22D0204600F052FC2068406900F043
:1027D0004000B0B12068406920F0400021684861A5
:1027E000606B50B11748616B4863606BFEF798F9F6
:1027F00010B1606B416B88470CE02046FFF768FF23
:1028000008E02046FFF764FF04E02046FFF760FF82
:102810000020E0638CE705F0800030B106F0800016
:1028200018B1204600F070FD82E705F0400030B19D
:1028300006F0400018B1204600F029FC78E700BF00
:1028400076E70000732F000810B504460CB901208C
:1028500010BDA06900B100E000BF94F8390028B9AC
:10286000002084F83800204600F028F8242084F85E
:1028700039002068C06820F400502168C8602046F4
:1028800000F072FC2068006920F490402168086123
:102890002068406920F02A00216848612068C068EB
:1028A00040F400502168C8600020E063202084F8D4
:1028B000390084F83A000020CAE7000010B586B05D
:1028C0000446002002900390049005901A49206865
:1028D00088422ED100BF1948806940F480401749D2
:1028E00088610846806900F48040019000BF00BF05
:1028F00000BF0846806940F004008861084680698E
:1029000000F00400019000BF00BF481502900220B3
:1029100003900320059002A90948FEF751FD4FF4EA
:102920008060029000200390049002A90448FEF702
:1029300047FD06B010BD0000003801400010024005
:102940000008014077B581B00446154694F83A0076
:10295000202850D1029800B115B9012004B070BDF3
:1029600000BF94F83800012801D10220F6E70120C9
:1029700084F8380000BF0298A062A5850020E063BB
:10298000222084F83A001D48616B88621C48616B04
:10299000C8621C48616B08630020616B486302AE2B
:1029A00032682368191D2B46606BFEF7E5FB00BFFC
:1029B0000020009020680068009020684068009027
:1029C00000BF00BF00BF002084F8380000BF2068AF
:1029D000C06840F480702168C8602068406940F099
:1029E0000100216848612068406940F0400021688A
:1029F00048610020B2E70220B0E70000D72F0008AE
:102A00001D300008872F000870B504462CB94FF41C
:102A10005772054905A003F03BFB254605F1D4009C
:102A200001F0F2F970BD0000A4CB00086875617276
:102A30007420213D204E554C4C00000070B50446DA
:102A40002CB940F26B32054905A003F021FB254665
:102A500005F1D40001F0D8F970BD0000BCCB00082E
:102A6000687561727420213D204E554C4C00000069
:102A7000F7B50446154694F8390020283DD1019851
:102A800000B10DB90120FEBD00BF94F83800012847
:102A900001D10220F7E7012084F8380000BF019837
:102AA0002062A584E5840020E063212084F83900B9
:102AB0001348216B88621348216BC8621248216B4E
:102AC00008630020216B486301AE23681A1D31683A
:102AD0002B46206BFEF750FB6FF04000216808602A
:102AE00000BF002084F8380000BF2068406940F033
:102AF0008000216848610020C5E70220C3E700008C
:102B00002B30000861300008872F000870B504469C
:102B10002CB940F27232054905A003F0B9FA2546F6
:102B2000042105F1D40004F029FD70BDD8CB0008C4
:102B3000687561727420213D204E554C4C00000098
:102B40007047000008B508490968C9084FF47A724F
:102B5000B1FBF2F14143009100BF00BF00994A1E52
:102B600000920029F9D108BD7403002010B505F0CA
:102B700035F8FEF7DDFD06F0EBFF05F059F810BD66
:102B800000B58FB0282105A8FDF7CDFD14216846BA
:102B9000FDF7C9FD01200590000406900020079074
:102BA0000120099002200C90C1030D914FF4E01117
:102BB0000E9105A8FEF7C4FF18B11D210CA000F06E
:102BC000E3FB0F20009002200190002002904FF4C0
:102BD000806003900020049002216846FEF77AFE90
:102BE00018B12A2102A000F0CFFB0FB000BD0000F9
:102BF0006273705C73746D33325C77617273686991
:102C00007076335C626F6172645C626F6172642EB5
:102C1000630000001148006840F001000F4908609F
:102C2000084640680E4908400C494860084600685C
:102C30000C490840094908600846006820F48020D3
:102C400008600846406820F4FE0048604FF41F000A
:102C50008860C80304490860704700000010024003
:102C60000000FFF8FFFFF6FE08ED00E010B504F0ED
:102C7000B5FF0348FFF713FB04F0DAFF10BD0000B7
:102C80007002002010B50268204B98420ED0204BF5
:102C900098420BD0B0F1804F08D01E4B984205D01F
:102CA0001D4B984202D01D4B984203D122F0700276
:102CB0004B681A43154B98420ED0154B98420BD0D7
:102CC000B0F1804F08D0134B984205D0124B984278
:102CD00002D0124B984203D122F44072CB681A43BF
:102CE00022F080034C6943EA040202608B68C362ED
:102CF0000B688362054B984202D0054B984201D184
:102D00000B6903630123436110BD0000002C0140E7
:102D1000003401400004004000080040000C004066
:102D200030B501F01F05012404FA05F3046A9C4341
:102D30000462046A01F01F0502FA05F52C430462DF
:102D400030BD30B50C46816821F47F4142EA03254D
:102D500025432943816030BD0A46816821F0700116
:102D600042F00703194381607047000030B5056ADF
:102D700025F001050562026A4368846924F0700445
:102D800024F003040D682C4322F002028D682A43CC
:102D9000104DA84200D103E00F4DA84206D100BF5C
:102DA00022F00802CD682A4322F00402094DA8420D
:102DB00002D0094DA84207D123F4807323F4007395
:102DC0004D692B438D692B43436084614D68456396
:102DD000026230BD002C01400034014030B5056A6C
:102DE00025F010050562026A4368846924F4E04412
:102DF00024F440740D6844EA052422F020028D6812
:102E000042EA0512124DA84200D103E0114DA8423A
:102E100007D100BF22F08002CD6842EA051222F0FD
:102E200040020B4DA84202D00A4DA84209D123F41A
:102E3000806323F400634D6943EA85038D6943EAA7
:102E40008503436084614D688563026230BD000084
:102E5000002C01400034014030B5056A25F480752E
:102E60000562026A4368C46924F0700424F0030414
:102E70000D682C4322F400728D6842EA0522124D3F
:102E8000A84200D103E0114DA84207D100BF22F4AF
:102E90000062CD6842EA052222F480620A4DA8420F
:102EA00002D00A4DA84209D123F4805323F40053E1
:102EB0004D6943EA05138D6943EA05134360C46114
:102EC0004D68C563026230BD002C014000340140F2
:102ED00030B5056A25F480550562036A4468C26905
:102EE00022F4E04222F440720D6842EA052223F403
:102EF00000538D6843EA0533084DA84202D0084DBF
:102F0000A84204D124F480444D6944EA8514446005
:102F1000C2614D680564036230BD0000002C0140B1
:102F20000034014030B50B461446026A056A25F0AC
:102F300001050562816921F0F00141EA041122F0E6
:102F40000A021A438161026230BD30B50B46144655
:102F5000056A25F0100505628169026A21F4704155
:102F600041EA043122F0A00242EA031281610262C6
:102F700030BD70B505466C6A0020E085E0842046CF
:102F8000FFF7A6FB70BD70B506460025746A206881
:102F90004069C0F3C01594F83900212805D125B146
:102FA0000020E084204600F082F820684069C0F3E9
:102FB000801594F83A00222805D125B10020E0853B
:102FC000204600F054F8E06B40F01000E06320462B
:102FD000FFF77EFB70BD70B505466C6A2868006817
:102FE00000F02000B0B90020E0852068C06820F41F
:102FF00080702168C8602068406920F00100216865
:1030000048612068406920F0400021684861202024
:1030100084F83A002046FFF7F7FC70BD70B504460F
:10302000656A2846FFF70AFD70BD70B505466C6AF3
:103030002868006800F0200070B90020E084206853
:10304000406920F08000216848612068C06840F035
:1030500040002168C86002E02046FFF757FD70BDC0
:1030600070B50446656A2846FFF76AFD70BD0168C1
:10307000C96821F490710268D1600168496921F042
:10308000010102685161202180F83A10704710B5A3
:1030900004462068C06820F040002168C8602020F5
:1030A00084F839002046FFF731FD002010BD01688B
:1030B000C96821F0C0010268D160202180F8391070
:1030C000704770B5044694F83A0022284AD1A068A7
:1030D000B0F5805F13D1A56A206940B920684068C7
:1030E000C0F308002880A06A801CA06219E0206854
:1030F0004068C0B22880A06A401CA06211E020692C
:1031000038B920684068C1B2A26A501CA062117030
:1031100007E02068406800F07F01A26A501CA062AE
:103120001170E08D401E80B2E085C8B92068C0688B
:1031300020F020002168C8602068C06820F48070FA
:103140002168C8602068406920F00100216848615A
:10315000202084F83A002046FFF756FC002070BD7E
:103160000020FCE70220FAE770B5044621680969EF
:1031700021F44051E2681143226811612269A1687B
:103180001143626941EA02052168C96841F20C6293
:10319000914329432268D1602168496921F4407133
:1031A000A269114322685161564A2168914254D163
:1031B000FEF76CFC00EBC00101EB001162689200AD
:1031C000B1FBF2F100EBC00202EB001263689B005E
:1031D000B2FBF3F26423B2FBF3F202EBC20303EBA4
:1031E0000212A1EB8201322202EB01116422B1FB37
:1031F000F2F101F0F00100EBC00202EB0012636893
:103200009B00B2FBF3F26423B2FBF3F201EB021278
:1032100000EBC00101EB001163689B00B1FBF3F10F
:1032200000EBC00303EB00136668B600B3FBF6F3D4
:103230006426B3FBF6F303EBC30606EB0313A1EB23
:103240008301322303EB01116423B1FBF3F101F09D
:103250000F0111442268916053E0FEF707FC00EB78
:10326000C00101EB001162689200B1FBF2F100EBCA
:10327000C00202EB001263689B00B2FBF3F264230E
:10328000B2FBF3F202EBC20303EB0212A1EB8201E9
:10329000322202EB01116422B1FBF2F101F0F001E4
:1032A00000EBC00202EB001263689B00B2FBF3F27A
:1032B0006423B2FBF3F201EB021200EBC00101EB5D
:1032C000001163689B00B1FBF3F100EBC00303EB5B
:1032D00000136668B600B3FBF6F36426B3FBF6F39F
:1032E00003EBC30606EB0313A1EB8301322303EBCD
:1032F00001116423B1FBF3F101F00F0111442268C5
:10330000916070BD00380140014691F839002128D4
:103310002CD18868B0F5805F0FD10A6A1088C0F39D
:1033200008000B685860086918B9086A801C0862B0
:1033300009E0086A401C086205E00B6A581C086234
:1033400018780B685860C88C401E80B2C88458B981
:103350000868C06820F080000B68D8600868C06802
:1033600040F040000B68D860002070470220FCE766
:1033700010B504F033FC034808F080F904F058FC61
:1033800010BD00008807002000BFFEE7024800686B
:10339000C0F30220704700000CED00E010B50028DB
:1033A00004DB0A07130E054A135406E00A07140E3D
:1033B000034A00F00F031B1FD45410BD00E400E0CB
:1033C00018ED00E070B5044606480068FCF726FFDB
:1033D000451E054850F83500A0F11406256030461A
:1033E00070BD0000E0000020B4050020034908681B
:1033F000884201D0012070470020FCE7F000002047
:103400002DE9F0438BB005468946174600242DB9B7
:103410004FF49B721C491DA002F03AFE2FB940F2F6
:10342000371219491AA002F033FE00E0641C285D2F
:10343000202804D0285D092801D04C45F6D324B9B2
:103440004FF0FF300BB0BDE8F0832146284602F074
:10345000D9FA064616B94FF0FF30F3E7282101A844
:10346000FDF761F901AA4946284602F03BFB804678
:10347000B8F1000F02D14FF0FF30E3E701A9404659
:10348000B04738600020DDE7BCCF0008636D640002
:1034900072657470000000002DE9F0410546884611
:1034A00016462F4627B93722084909A002F0F0FD39
:1034B00034461CB94FF0FF30BDE8F08162882188A6
:1034C000386C0368284698470020F5E7C7CC000809
:1034D00070696E20213D2052545F4E554C4C0000C7
:1034E0002DE9F0470546894616461F46A846B8F11D
:1034F000000F04D118220A490AA002F0C9FD34467F
:103500000CB1042F02D00020BDE8F0872188D8F844
:10351000400082682846904760803846F4E7000003
:10352000B2CC000870696E20213D2052545F4E5588
:103530004C4C00002DE9F0470546894616461F46CB
:10354000A846B8F1000F04D127220A490AA002F0C8
:103550009FFD34460CB1042F02D00020BDE8F08757
:1035600062882188D8F84000436828469847384642
:10357000F4E70000BCCC000870696E20213D2052A9
:10358000545F4E554C4C00002DE9F04104460E4668
:1035900017464FF000082546286C006830B1286CAB
:1035A0003A46314603682846984780464046BDE87B
:1035B000F0812DE9FE4F04460E46174698464FF01F
:1035C00000092546BA46002000900190029000961E
:1035D000286C006878B1286C6A4683210368284605
:1035E00098478146B9F1000F02D00020BDE8FE8F58
:1035F0000298CAF800004046F8E72DE9FE4F05465C
:103600000E46174698464FF000092C46BA46002051
:103610000090019002900096206C0068D8B1206C58
:103620006A4683210368204698478146B9F1000F16
:1036300002D00020BDE8FE8FDAF800000290206C76
:103640006A4682210368204698478146B9F1000FF7
:1036500001D00020EEE74046ECE7000070B50446DC
:1036600024B95322144915A002F012FDA06A007873
:10367000232809D1A16AE069884205D9D4E90A0161
:103680000844E16988420CD2214611A004F036FBBF
:1036900001F0B4FEFCF7EAFD054600BF002DFDD1A8
:1036A00008E0A06A2030E169814203D821460FA0DA
:1036B00004F024FB70BD000013C400087468726538
:1036C000616420213D2052545F4E554C4C00000057
:1036D0007468726561643A257320737461636B204A
:1036E0006F766572666C6F770A0000007761726EA4
:1036F000696E673A20257320737461636B20697368
:1037000020636C6F736520746F20656E64206F6634
:1037100020737461636B20616464726573732E0A35
:10372000000000002DE9FC5F04468B4616461F464C
:10373000DDE90C9ADDE90E5804F1140040600060E8
:1037400000BF26626762C4F82890C4F82CA0232129
:10375000D4E90A0204F037FDD4E90A3C63441A1F95
:10376000174BD4E9080104F039F8E061202D04DB9F
:103770009522144914A002F08BFC3034A5716571B8
:103780000020A060C4F81480C4F818802060207164
:10379000A064E064303C00902346144A2146019026
:1037A00004F14C0006F012FB00BF1148006818B18C
:1037B00020460F490968884700BF0020BDE8FC9FEC
:1037C0003595000861C400087072696F7269747978
:1037D000203C2052545F5448524541445F50524966
:1037E0004F524954595F4D41580000004D9A00080E
:1037F000040100202DE9F04704460E46174698467E
:10380000DDF8209084F80990607A20F00100607261
:10381000E66127620020A062C4F82480002506E04B
:1038200004F1140101EBC50004F0A2FA6D1C012D96
:10383000F6DBBDE8F08710B50246002001460EE039
:1038400002F1140303EBC100D0E900436360D0E947
:10385000003423604060006000BF481C014601291D
:10386000EEDB10BD10B50948006868B900BF08A0BC
:1038700004F044FA094804F041FA09A004F03EFAC1
:1038800000BF01200149086010BD0000580300205E
:103890005B572F554152545D2000000074D1000841
:1038A0000A0000002DE9F04704460F46904604B197
:1038B0002FB940F2C912404940A002F0E9FBFCF7E1
:1038C000D5FC8246A06CC0F38F2000282DD10026A5
:1038D000E56C2DB940F2D312374943A002F0D8FB72
:1038E0002868012813D001202860206C006928B9BD
:1038F0004FF4EC72304941A002F0CAFB206C012366
:1039000042463946D0F810C02046E04701E06FF04B
:1039100006065046FCF7AEFC16B94046BDE8F087F7
:10392000304605F03DFC0020F8E7E56C0026204617
:1039300003F0A8FA81462DB94FF4F4721E4939A05C
:1039400002F0A6FBC84501DA464600E04E46E8888C
:103950008119A06CC0F38F20814207D2EA882868C1
:1039600081183246384604F0CFFB1CE0A06CC0F34F
:103970008F20EB88C21A2868C118384604F0C4FBAF
:10398000EB8803EB060CA36CC3F38F23ACEB0302B1
:10399000A36CC3F38F233B44B5F806C0A3EB0C0024
:1039A000296804F0B1FB3146204603F071FA504615
:1039B000FCF760FC3046B1E7C4CD0008287365729F
:1039C00069616C20213D2052545F4E554C4C29209A
:1039D000262620286461746120213D2052545F4EC8
:1039E000554C4C290000000072785F646D61202105
:1039F0003D2052545F4E554C4C0000007365726977
:103A0000616C2D3E6F70732D3E646D615F747261E9
:103A10006E736D697420213D2052545F4E554C4C9D
:103A20000000000072785F6669666F20213D2052B9
:103A3000545F4E554C4C00002DE9F0470446884633
:103A40001646256D4FF0FF3332464146281D02F0E1
:103A5000F1FD0746CFB9FCF709FC8146286801282B
:103A60000DD0012028604846FCF704FC206C02239E
:103A700032464146D0F810C02046E04702E04846B2
:103A8000FCF7F8FB3046BDE8F087384605F088FBC8
:103A90000020F8E770B50546EC6C2CB940F25B12DB
:103AA0000F4910A002F0F4FAA088E188884207D1FB
:103AB000A06808B9002070BDA86CC0F38F20FAE799
:103AC000A088E188884203DDA088E188401AF2E7F7
:103AD000E088A188411AA86CC0F38F20401AEAE759
:103AE0006DCD000872785F6669666F20213D2052B7
:103AF000545F4E554C4C00002DE9F04706460F46EA
:103B000015462EB94FF483721E491FA002F0C0FA69
:103B1000A846F46C2CB94FF485721A491FA002F024
:103B2000B7FA28E0FCF7A2FB8246E088A188884229
:103B300005D1A06818B95046FCF79CFB1DE0E18850
:103B4000206810F80190E088401CE080E188B06CAB
:103B5000C0F38F20814201DB0020E080A0680128B3
:103B600001D10020A0605046FCF784FB87F800904C
:103B70007F1C6D1E00BF002DD4D100BFA8EB050037
:103B8000BDE8F0874FCD000873657269616C202134
:103B90003D2052545F4E554C4C00000072785F66D9
:103BA00069666F20213D2052545F4E554C4C0000F9
:103BB0002DE9F04105460E4614462DB94FF49B728F
:103BC0001149124802F064FAA0462F6D2FB94FF444
:103BD0009D720D490EA002F05BFA0FE03178286C5F
:103BE000826828469047401C28B94FF0FF3138467C
:103BF00002F0F2FA02E0761C641E00BF002CEDD148
:103C0000A8EB0400BDE8F0815ECD0008683C000828
:103C1000747820213D2052545F4E554C4C000000DA
:103C20002DE9F04106460F46144626B9D3220D4928
:103C30000DA002F02DFAA0460DE0306CC1683046B0
:103C400088470546681C00B907E03D707F1C641E6C
:103C50000A2D00D101E0002CEFD100BFA8EB040039
:103C6000BDE8F0812FCD000873657269616C202179
:103C70003D2052545F4E554C4C0000002DE9F04160
:103C800004460E46154624B9E7220F490F4802F0B4
:103C9000FFF92F4612E030780A2808D1207E00F084
:103CA000400020B1206C0D21826820469047317879
:103CB000206C826820469047761C6D1E002DEAD14C
:103CC000781BBDE8F08100003FCD0008683C00088B
:103CD0000246002106E001208840904201D10846BA
:103CE0007047491C2029F6DB4FF0FF30F8E7000051
:103CF00010B520A004F002F82148017821A003F0BB
:103D0000FDFF1F48007800F0010010B123A003F070
:103D1000F5FF1B48007800F0020010B122A003F06C
:103D2000EDFF1748007800F0040010B121A003F067
:103D3000E5FF1348007800F0080010B121A003F05F
:103D4000DDFF0F48007800F0100010B120A003F054
:103D5000D5FF0B48007800F0800030B108480F30E4
:103D600001681DA003F0CAFF02E01FA003F0C6FF18
:103D700010BD0000627573206661756C743A0A00AC
:103D800029ED00E05343425F434653525F4246539E
:103D9000523A3078253032582000000049425553BD
:103DA00045525220000000005052454349534552AD
:103DB00052200000494D505245434953455252202C
:103DC00000000000554E53544B4552522000000055
:103DD00053544B45525220005343422D3E424641DC
:103DE000523A253038580A000A00000070B50446DF
:103DF0000D4601F049F8002070BD70B504460D462F
:103E000001F0FCFA002070BD2DE9F04105462DB906
:103E10004FF4B872184919A002F03AF9A5F1D40488
:103E2000606C0068C0F3400020B9606C0068C0F3AB
:103E30008000F8B1FCF71AFA8046A86CC0F38F2016
:103E4000616C4968461A36B9A86CC0F38F21882086
:103E500000590F1A02E088200059371A88200651AD
:103E60004046FCF707FA2FB1032040EA0721284615
:103E700003F084FBBDE8F08174CB000873657269C0
:103E8000616C20213D2052545F4E554C4C00000087
:103E90002DE9F04104460D4616463746D4F83C80DD
:103EA000802D06D0812D0BD0822D0FD0832D17D1E0
:103EB00011E001223946404600F014F8BDE8F081D7
:103EC00000223946404600F00DF8F7E739464046F3
:103ED00000F08AF8F2E73946404600F019F8EDE7BD
:103EE0000A20EBE72DE9F04106460C46154620680E
:103EF000401E870025B939463046FEF795FB03E0A2
:103F000039463046FEF764FB0020BDE8F081000032
:103F10002DE9F04104460F463868401E4FEA8008FC
:103F2000FDF7A4FD450000262068006800F44070FD
:103F3000B0F5807F08D10222002328463146FCF7E5
:103F40000FFA05460E460EE02068006800F4407047
:103F5000B0F5007F07D10422002328463146FCF744
:103F6000FFF905460E461F4A002328463146FCF756
:103F7000F7F905460E462068C06A401C2168896A28
:103F8000491C48434FF47A7100FB01FC2A46334632
:103F900060460021FCF7E4F97860B8F1000F02D127
:103FA0002068406B0DE0B8F1040F02D12068806BEF
:103FB00007E0B8F1080F02D12068C06B01E020686B
:103FC000006C401C2168896A491C48434FF47A718F
:103FD00048432A4633460021FCF7C2F9B860002066
:103FE000BDE8F08140420F002DE9F04F85B0044656
:103FF0008B46DBF80000401E80000490FDF736FD84
:10400000450000263F4A002328463146FCF7A8F920
:1040100005460E460021DBF80400A0FB052301FB4A
:10402000053100FB0610CDE902204FF47A7200231F
:10403000DDE90201FCF794F981464FF6FF70B9FB08
:10404000F0F0471C4FF000083A464346484600212E
:10405000FCF786F98146781E21688862B9F1030F62
:1040600001D24FF0030900BFA9F101002168C86225
:10407000E06000BF0021DBF80800A0FB052301FB86
:10408000053100FB0610CDE900203A464346DDE944
:104090000001FCF765F94FF47A720023CDE90201C3
:1040A000FCF75EF98246BAF1020F02D24FF0020A23
:1040B00002E0CA4500D9CA46049820B9AAF1010015
:1040C0002168486313E00498042804D1AAF1010090
:1040D000216888630BE00498082804D1AAF1010044
:1040E0002168C86303E0AAF1010021680864002088
:1040F0002168486201212046FEF7B5F8002005B08E
:10410000BDE8F08F40420F0010B51448006890F8E9
:104110002100C0F3400020B9002011490870084672
:1041200010BD1048006838B180220E4801680C4864
:10413000FCF720FB0A48F3E701F0D2FC20B10AA10A
:104140000748FCF7BDF903E009A10548FCF7B8F9F9
:1041500009A10348FCF742FA0148E1E76C0300209B
:1041600020080020700300206D736820000000000C
:1041700066696E73682000003E00000008B50020EC
:1041800000900E48006820B9AF220D490DA001F043
:104190007FFF05E04FF0FF310848006804F034FC71
:1041A0000649096801236A46D1F80C02991E02F0FB
:1041B0005BFD0128EED19DF8000008BD6C030020D6
:1041C00009CF00087368656C6C20213D2052545F54
:1041D0004E554C4C0000000070B504460D46074893
:1041E000006820B9BE22064906A001F051FF03482D
:1041F000006804F0C1FB002070BD00006C030020CB
:1042000017CF00087368656C6C20213D2052545F05
:104210004E554C4C0000000070B505460024254862
:10422000006820B9D122244924A001F031FF28469A
:1042300002F050FB044624B9294625A003F05EFD98
:1042400070BD1C480068D0F80C02A04200D1F7E70E
:1042500040F24311204602F015FC48BB15480068A7
:10426000D0F80C0260B113490968D1F80C0202F0D1
:1042700091FA10490968D1F80C02002102F068FD9A
:1042800050210C48006800F5DB70FCF72AFA00208A
:1042900008490968A1F8060206490968A1F8080258
:1042A00004480068C0F80C421149204602F050FD55
:1042B00000BFC5E76C03002024CF00087368656C5D
:1042C0006C20213D2052545F4E554C4C00000000A4
:1042D00066696E73683A2063616E206E6F74206643
:1042E000696E64206465766963653A2025730A0007
:1042F000D941000810B504460948006820B9A32236
:10430000084909A001F0C4FE0548006890F82100A2
:1043100064F341000249096881F8210010BD0000E2
:104320006C030020F3CE00087368656C6C20213D9F
:104330002052545F4E554C4C00000000024A106061
:10434000024A1160704700005C03002060030020F7
:104350007CB5002517491848FFF7F0FF4FF40471AA
:10436000012001F0CFFE154908600846006820B919
:1043700013A003F0C3FC681E7CBD0A2014214FF477
:1043800080530022CDE90010134914A005F0A9F8CC
:10439000044600231A4613A10848006804F0B6FA40
:1043A0000120FFF7A7FF1CB115B9204605F07EFAE2
:1043B0000020E1E704DA000860D800086C03002060
:1043C0006E6F206D656D6F727920666F72207368F5
:1043D000656C6C0A00000000ED43000874736865AA
:1043E0006C6C00007368727800000000FE48006882
:1043F00090F8210020F00100401CFB49096881F879
:104400002100F9480068D0F80C0238B901F0A0FF8B
:10441000054615B12846FFF7FFFE00BFFFF774FE03
:10442000054603F06BFC5EE2FFF7A8FE0446002C95
:1044300000DA58E21B2C05D10120EB49096881F80C
:10444000200050E2E848006890F8200001280DD1D3
:104450005B2C05D10220E449096881F8200042E282
:104460000020E149096881F82000BEE0DE480068CC
:1044700090F820000228F8D10020DB49096881F873
:104480002000412C36D1D8480068408C002807DD38
:10449000D5480068408C401ED3490968488404E030
:1044A0000020D149096848841DE2CF480068408C4B
:1044B00000EB8002CC480068263000EB021150224D
:1044C000C948006800F5DB70FCF794F8C64800683E
:1044D00000F5DB70FCF718F880B2C3490968A1F851
:1044E0000602C1490968A1F80802BF48006805F042
:1044F000B3FFF8E1422C42D1BB480068418CBA4876
:104500000068808C401E814207DAB7480068408C02
:10451000401CB549096848840CE0B3480068808CA9
:1045200038B1B1480068808C401EAF4909684884A2
:1045300000E0D8E1AC480068408C00EB8002AA485B
:104540000068263000EB02115022A748006800F5F1
:10455000DB70FCF74FF8A448006800F5DB70FBF750
:10456000D3FF80B2A0490968A1F806029E490968F4
:10457000A1F808029C48006805F06EFFB3E1442CE6
:1045800011D199480068B0F8080258B197A003F01B
:10459000B5FB95480068B0F80802401E92490968CA
:1045A000A1F808029FE1432C1FD18F480068B0F8A2
:1045B00008028D490968B1F80612884214DA8A485F
:1045C0000068B0F808228848006800F5DB70815C5C
:1045D00087A003F093FB84480068B0F80802401CF1
:1045E00081490968A1F808027DE10CB1FF2C00D1D6
:1045F00079E1092C21D1002503E07CA003F07EFBAA
:104600006D1C79480068B0F80802A842F5DC7648CD
:10461000006800F5DB7005F003FF7348006800F5E3
:10462000DB70FBF771FF80B26F490968A1F80602E1
:104630006D490968A1F8080255E17F2C01D0082CCA
:1046400074D169480068B0F8080200B94BE16648C7
:104650000068B0F80602401E63490968A1F8060226
:1046600061480068B0F80802401E5F490968A1F877
:1046700008025D480068B0F806025B490968B1F8B5
:104680000812884243DD584B1B68B3F80632564E79
:104690003668B6F808629A1B534B1B68B3F80832A9
:1046A0005B1C514E366806F5DB7699194E4B1B683C
:1046B000B3F808624C4B1B6803F5DB73F01803F08A
:1046C00061FD002148480068B0F8062246480068AD
:1046D00000F5DB70815444480068B0F80822424875
:1046E000006800F5DB70111842A003F007FB3E489C
:1046F0000068B0F8085203E03CA003F0FFFA6D1C1C
:1047000039480068B0F80602A842F5DA0CE03BA090
:1047100003F0F4FA002234480068B0F80612324878
:10472000006800F5DB704254DDE0FFE70D2C01D09E
:104730000A2C31D12C48006805F0A6FE01F0D0F912
:10474000012813D12848006890F8210000F00100EA
:1047500010B12BA003F0D2FA23480068B0F806127B
:104760002148006800F5DB7001F016F9FFF7CCFC7A
:10477000054603F0C3FA50211B48006800F5DB70C2
:10478000FBF7AFFF002018490968A1F80602164997
:104790000968A1F80802A6E013480068B0F806020C
:1047A000502804DB002010490968A1F806020E48D1
:1047B0000068B0F808020C490968B1F8061288428E
:1047C00059DA094B1B68B3F80632074E3668B6F85B
:1047D00008629A1B044B1B68B3F80862024B1B6803
:1047E00003F5DB73F1180DE06C03002008000000F6
:1047F0002563000008257320200800000820080019
:104800000A000000384B1B68B3F808325B1C364EB8
:10481000366806F5DB76981903F0B4FC3248006878
:10482000B0F808223048006800F5DB7084542E4848
:10483000006890F8210000F0010058B12A48006893
:10484000B0F808222848006800F5DB70111827A08E
:1048500003F054FA24480068B0F8085204E0AFF2BC
:10486000740003F04BFA6D1C1F480068B0F8060294
:10487000A842F4DC14E01C480068B0F806221A488C
:10488000006800F5DB7084541748006890F8210038
:1048900000F0010020B12146AFF2AC0003F02EFA87
:1048A000002411480068B0F80602401C0E4909684F
:1048B000A1F806020C480068B0F80802401C0A493A
:1048C0000968A1F8080208480068B0F806025028F4
:1048D00008DB002004490968A1F8060202490968BA
:1048E000A1F8080200BF9FE56C03002025730000BB
:1048F0000146702909D201EB4102054B03EB82000E
:104900000268521C12B9002000E00020704700002D
:1049100078C5000810B51448006800F0020010B116
:1049200012A003F0EBF91048006800F0804088B155
:104930000D48C01E007808B1FFF7DAF90A48001FD9
:10494000007808B100F064FF0748801E008808B1B5
:1049500006F06CFF0448006800F0004010B109A0A8
:1049600003F0CCF910BD00002CED00E06661696C2D
:10497000656420766563746F722066657463680A87
:10498000000000006465627567206576656E740AD4
:104990000000000010B502A003F0B0F9002010BD27
:1049A00048656C6C6F2052542D54687265616421A7
:1049B0000A00000010B50DA003F0A0F9104804682B
:1049C0000DE002220FA12068FBF7BDFD00B905E054
:1049D0000DA0D4E9001203F091F900BF0C340E4889
:1049E00000688442EDD3002010BD00002D2D4675D7
:1049F0006E6374696F6E204C6973743A0A0000002C
:104A00005C0300205F5F0000252D313673202D2DC3
:104A10002025730A00000000600300202DE9F04704
:104A200090B000270FF2A009082303AA09210BA8C0
:104A300000F022F94FF008084A46414624A003F04E
:104A40005DF9404601F0C6F82BA003F057F900BF0E
:104A50000BA9384600F025F9074600262BE003A8ED
:104A600050F82600A0F10C05FBF700FC8246287ADE
:104A700020F080009DF83410884203D05046FBF7A8
:104A8000F9FB17E05046FBF7F5FB2C46A17E207D95
:104A9000152804DC207D214A52F8200001E01F483F
:104AA000406D23460822CDE9000141461CA003F0D9
:104AB00025F900BF761C0F98B042D0DC002FC7D17B
:104AC000002010B0BDE8F08764657669636500007A
:104AD000252D2A2E732020202020202020207479AC
:104AE0007065202020202020202020726566206311
:104AF0006F756E740A000000202D2D2D2D2D2D2D8B
:104B00002D2D2D2D2D2D2D2D2D2D2D2D2D202D2DE2
:104B10002D2D2D2D2D2D2D2D0A00000064CF0008E8
:104B2000252D2A2E2A7320252D32307320252D384D
:104B3000640A00002DE9F04F8FB000270FF2C00982
:104B4000082302AA04210AA800F096F84FF00808EA
:104B50004A4641462CA003F0D1F8404601F03AF80D
:104B600032A003F0CBF800BF0AA9384600F099F84C
:104B7000074600253BE002A850F82500A0F10C06EE
:104B8000FBF774FB8346307A20F080009DF83010EC
:104B9000884203D05846FBF76DFB27E05846FBF7E9
:104BA00069FB344604F1140003F02BF9A8B904F1B1
:104BB000140003F02EF98246E0692346082241469C
:104BC000CDE9000A21A003F099F804F1140005F0E2
:104BD000C7FC15A003F092F807E0E069234608221D
:104BE000414600901FA003F089F800BF6D1C0E988D
:104BF000A842C0DC002FB7D100200FB0BDE8F08F75
:104C00006576656E74000000252D2A2E7320202005
:104C10002020207365742020202073757370656ECA
:104C200064207468726561640A00000020202D2DE4
:104C30002D2D2D2D2D2D2D2D202D2D2D2D2D2D2DB1
:104C40002D2D2D2D2D2D2D0A00000000252D2A2E75
:104C50002A73202030782530387820253033643A84
:104C600000000000252D2A2E2A73202030782530C0
:104C7000387820300A0000002DE9F04704460D4640
:104C800016461F46284603F0B7FB814609F1040883
:104C9000C4F8008025726660E76000202061BDE8EE
:104CA000F0872DE9F84F07460C464FF0000A002028
:104CB0002061E06808B1207A10B90020BDE8F88FC3
:104CC000D4F800801FB945464FF0010A00E03D4688
:104CD000FBF7CCFA0090BAF1000F0ED1A5F10C0B46
:104CE0009BF8080020F08000217A884204D00098C8
:104CF000FBF7C0FA0020E1E700BF0026D4F80490DB
:104D00000BE02D68454501D1002507E0761C49F8E8
:104D1000045BE068B04200D100E0F2E700BF009819
:104D2000FBF7A8FA26612846C8E700002DE9F04FF6
:104D300091B000270FF2D409082304AA05210CA87A
:104D4000FFF79AFF4FF008084A46414631A002F0AB
:104D5000D5FF404600F03EFF37A002F0CFFF00BF76
:104D60000CA93846FFF79DFF0746002545E004A83B
:104D700050F82500A0F10C06FBF778FA8346307A4C
:104D800020F080009DF83810884203D05846FBF789
:104D900071FA31E05846FBF76DFA344604F114001D
:104DA00003F02FF8B8B904F1140003F032F882468A
:104DB000208C618C23460822CDE9010A00914146EE
:104DC00024A002F09BFF04F1140005F0C9FB27A00A
:104DD00002F094FF0FE004F1140003F01AF8824689
:104DE000208C618C23460822CDE9010A00914146BE
:104DF0001FA002F083FF00BF6D1C1098A842B6DC14
:104E0000002FADD1002011B0BDE8F08F6D61696C4D
:104E1000626F7800252D2A2E7320656E74727920BA
:104E200073697A652073757370656E642074687237
:104E30006561640A00000000202D2D2D2D20202DFD
:104E40002D2D2D202D2D2D2D2D2D2D2D2D2D2D2D9F
:104E50002D2D0A00252D2A2E2A732025303464207A
:104E600020253034642025643A0000000A00000048
:104E7000252D2A2E2A732025303464202025303415
:104E8000642025640A00000010B50848016808A0E5
:104E900002F034FF0B4801680BA002F02FFF0F480F
:104EA00001680FA002F02AFF10BD000030000020B2
:104EB000746F74616C206D656D6F72793A20256432
:104EC0000A0000003400002075736564206D656D74
:104ED0006F7279203A2025640A0000003800002013
:104EE0006D6178696D756D20616C6C6F636174655F
:104EF00064206D656D6F72793A2025640A000000A8
:104F00002DE9F04F93B04FF000090FF2DC0B0823AE
:104F100005AA19460DA8FFF7AFFE4FF0080A5A463A
:104F2000514633A002F0EAFE504600F053FE3AA08C
:104F300002F0E4FE00BF0DA94846FFF7B2FE81462D
:104F4000002647E005A850F82600A0F10C07FBF763
:104F50008DF91290387A20F080009DF83C1088423C
:104F600003D01298FBF786F933E01298FBF782F929
:104F70003C460025D4F82C8002E06D1CD8F8008057
:104F800004F12C008045F8D1002D14DDD4E909206E
:104F9000E1692346CDE90205CDE900120822514618
:104FA00026A002F0ABFE04F12C0005F0D9FA22A0F5
:104FB00002F0A4FE0CE0D4E90920E1692346CDE922
:104FC0000205CDE900120822514623A002F096FE08
:104FD00000BF761C1198B042B4DCB9F1000FAAD121
:104FE000002013B0BDE8F08F6D656D706F6F6C00C1
:104FF000252D2A2E7320626C6F636B20746F746191
:105000006C20667265652073757370656E642074BC
:1050100068726561640A0000202D2D2D2D20202D41
:105020002D2D2D20202D2D2D2D202D2D2D2D2D2DD7
:105030002D2D2D2D2D2D2D2D0A000000252D2A2E54
:105040002A73202530346420202530346420202524
:105050003034642025643A00252D2A2E2A73202519
:1050600030346420202530346420202530346420FE
:1050700025640A002DE9F04F8FB000270FF2CC090C
:10508000082302AA06210AA8FFF7F6FD4FF0080838
:105090004A46414630A002F031FE404600F09AFDFB
:1050A00034A002F02BFE00BF0AA93846FFF7F9FD35
:1050B0000746002541E002A850F82500A0F10C06A3
:1050C000FBF7D4F88346307A20F080009DF830104A
:1050D000884203D05846FBF7CDF82DE05846FBF741
:1050E000C9F8344604F1140002F08BFEA8B904F1AB
:1050F000140002F08EFE8246A08C23460822414610
:10510000CDE9000A21A002F0F9FD04F1140005F038
:1051100027FA23A002F0F2FD0DE004F1140002F0E2
:1051200078FE8246A08C234608224146CDE9000A3B
:105130001CA002F0E3FD00BF6D1C0E98A842BADC73
:10514000002FB1D100200FB0BDE8F08F6D736771F3
:105150007565756500000000252D2A2E7320656E8B
:105160007472792073757370656E642074687265EB
:1051700061640A00202D2D2D2D20202D2D2D2D2D6B
:105180002D2D2D2D2D2D2D2D2D0A0000252D2A2ED6
:105190002A732025303464202025643A0000000062
:1051A0000A000000252D2A2E2A7320253034642081
:1051B0002025640A000000002DE9F04F91B000277F
:1051C0000FF29C09082304AA03210CA8FFF754FD41
:1051D0004FF008084A46414623A002F08FFD4046A2
:1051E00000F0F8FC29A002F089FD00BF0CA93846A8
:1051F000FFF757FD0746002629E004A850F82600CF
:10520000A0F10C04FBF732F88346207A20F08000EE
:105210009DF83810884203D05846FBF72BF815E06C
:105220005846FBF727F8254605F1140002F0F1FD7A
:105230008246E87F0822296A2B46CDE9020ACDE999
:105240000021414619A002F059FD00BF761C1098BC
:10525000B042D2DC002FC9D1002011B0BDE8F08FE0
:105260006D75746578000000252D2A2E732020208E
:105270006F776E65722020686F6C64207375737031
:10528000656E64207468726561640A00202D2D2D9E
:105290002D2D2D2D2D202D2D2D2D202D2D2D2D2D58
:1052A0002D2D2D2D2D2D2D2D2D0A0000252D2A2EB5
:1052B0002A7320252D382E2A73202530346420258A
:1052C000640A00002DE9F04F8FB000270FF2CC09DF
:1052D000082302AA02210AA8FFF7CEFC4FF0080813
:1052E0004A46414630A002F009FD404600F072FCFB
:1052F00034A002F003FD00BF0AA93846FFF7D1FC35
:105300000746002541E002A850F82500A0F10C0650
:10531000FAF7ACFF8346307A20F080009DF8301019
:10532000884203D05846FAF7A5FF2DE05846FAF711
:10533000A1FF344604F1140002F063FDA8B904F1A2
:10534000140002F066FD8246A08B234608224146E7
:10535000CDE9000A21A002F0D1FC04F1140005F00F
:10536000FFF817A002F0CAFC0DE004F1140002F0EF
:1053700050FD8246A08B234608224146CDE9000A13
:105380001AA002F0BBFC00BF6D1C0E98A842BADC4C
:10539000002FB1D100200FB0BDE8F08F73656D61B3
:1053A00070686F7265000000252D2A2E732076200C
:1053B000202073757370656E642074687265616413
:1053C0000A000000202D2D2D202D2D2D2D2D2D2DD1
:1053D0002D2D2D2D2D2D2D0A00000000252D2A2EDE
:1053E0002A7320253033642025643A00252D2A2E87
:1053F0002A7320253033642025640A002DE9F04FFC
:10540000B1B04FF000090FF21C1B082323AA0121A1
:105410002BA8FFF731FC4FF0080A5A465146434883
:1054200002F06CFC504600F0D5FB41A002F066FC97
:1054300000BF2BA94846FFF734FC81464FF0000817
:1054400065E023A850F82800A0F10C05FAF70EFF3C
:105450003090287A20F080009DF8B410884203D064
:105460003098FAF707FF50E08022294603A8FBF79F
:1054700006F93098FAF7FEFE2C4694F835002346DC
:105480000822514600903AA002F038FC94F834000B
:1054900000F00706012E03D138A002F02FFC15E022
:1054A000022E03D138A002F029FC0FE01EB939A06A
:1054B00002F024FC0AE0042E03D139A002F01EFC05
:1054C00004E0032E02D139A002F018FCA76A00E024
:1054D0007F1C38782328FBD0D4E90A10791A401AA7
:1054E00064214843E16AB0FBF1F00290216BA06CAB
:1054F000CDE90001E369A06AC01AE36AC1181A463F
:105500002DA0029B02F0FAFB00BF08F101082F98C2
:10551000404596DCB9F1000F8BD1002031B0BDE8D9
:10552000F08F00007468726561640000D8D10008D3
:10553000202D2D2D20202D2D2D2D2D2D2D202D2DCF
:105540002D2D2D2D2D2D2D2D202D2D2D2D2D2D2D98
:105550002D2D2D20202D2D2D2D2D2D20202D2D2DAF
:105560002D2D2D2D2D2D2D202D2D2D0A000000004F
:10557000252D2A2E2A732025336420002072656190
:1055800064792020000000002073757370656E64DC
:105590000000000020696E697420202000000000D7
:1055A00020636C6F73652020000000002072756E10
:1055B0006E696E6700000000203078253038782052
:1055C0003078253038782020202025303264252579
:1055D00020202030782530387820253033640A00A8
:1055E0002DE9F04790B000270FF2B409082303AA71
:1055F0000A210BA8FFF740FB4FF008084A46414636
:1056000029A002F07BFB404600F0E4FA30A002F053
:1056100075FB00BF0BA93846FFF743FB0746002682
:105620002DE003A850F82600A0F10C04FAF71EFEA6
:105630008246207A20F080009DF83410884203D002
:105640005046FAF717FE19E05046FAF713FE2546C2
:10565000D5E909012B460822CDE90001414625A0E4
:1056600002F04CFB687A00F0010018B127A002F0AC
:1056700045FB02E028A002F041FB00BF761C0F981A
:10568000B042CEDC002FC5D104F05CFA04462146BE
:1056900025A002F033FB002010B0BDE8F087000029
:1056A00074696D6572000000252D2A2E732020700C
:1056B0006572696F64696320202074696D656F7518
:1056C0007420202020202020666C61670A000000E2
:1056D000202D2D2D2D2D2D2D2D2D2D202D2D2D2D14
:1056E0002D2D2D2D2D2D202D2D2D2D2D2D2D2D2DF7
:1056F0002D2D0A00252D2A2E2A73203078253038AA
:105700007820307825303878200000006163746993
:1057100076617465640A000064656163746976612A
:105720007465640A0000000063757272656E74200F
:105730007469636B3A3078253038780A00000000CD
:105740001CB519A001F0C6F81949086008460068A0
:1057500028B915A117A002F0D1FA01201CBD2148DB
:1057600003682148012102681148006802F082FFA5
:1057700001210F48006802F068FF05200F214FF457
:1057800000730022CDE90010184919A003F0A9FE0A
:105790001A4908600846006818B10846006804F015
:1057A00085F80020DAE7000070776D330000000014
:1057B0002001002070776D2073616D706C65207220
:1057C000756E206661696C6564212063616E277463
:1057D0002066696E6420257320646576696365219F
:1057E0000A0000002801002024010020555F000865
:1057F00070776D5F74687265616400001C01002041
:1058000010B5044600F096FDFFF79AFF10BD0000AA
:1058100010B51CA002F072FA1F4801781FA002F018
:105820006DFA1D48007800F0010010B121A002F0CF
:1058300065FA1948007800F0020010B120A002F0CB
:105840005DFA1548007800F0080010B11FA002F0C2
:1058500055FA1148007800F0100010B11EA002F0B7
:105860004DFA0D48007800F0800030B10A480C3045
:1058700001681CA002F042FA02E01EA002F03EFA0B
:1058800010BD00006D656D206D616E6167652066FD
:1058900061756C743A0A000028ED00E05343425FE2
:1058A000434653525F4D4653523A30782530325872
:1058B000200000004941434356494F4C200000005E
:1058C0004441434356494F4C200000004D554E5330
:1058D000544B4552522000004D53544B45525220D8
:1058E000000000005343422D3E4D4D41523A2530B9
:1058F00038580A000A0000002DE9F04781460026CA
:10590000002799F8000028B90021084600F0A8F8FF
:10591000BDE8F0871B48046827E006221AA120682A
:10592000FAF711FE00B11FE0206800F106084846B2
:10593000FAF7EAFD8246524641464846FAF703FE28
:1059400088B926B947463846FAF7DEFD064641468D
:10595000384605F08BFC0546B54200DA2E46414636
:105960000BA002F0CBF900BF0C340A480068844257
:10597000D3D327B132463946484603F0ABFC00BFCB
:10598000C6E700005C0300205F5F636D645F00009A
:1059900025730A006003002038B504460D4601E077
:1059A000641C6D1E20782028FAD020780928F7D0B2
:1059B0000DB9002038BD6A4629462046FDF720FD76
:1059C00008B90098F6E7204600E0401C017820293D
:1059D00002D001780029F8D100210170214603A0EE
:1059E00002F08CF94FF0FF30E4E7000025733A2015
:1059F000636F6D6D616E64206E6F7420666F756E7F
:105A0000642E0A002DE9F04106460D460027104895
:105A1000046815E006220FA12068FAF794FD00B192
:105A20000DE02168881D2A463146FAF78CFD28B919
:105A3000A81D2168085C08B9A76805E000BF0C3400
:105A4000064800688442E5D300BF3846BDE8F081CF
:105A50005C0300205F5F636D645F000060030020F3
:105A600070B505460E460FA002F048F914480468C8
:105A70000EE0062213A12068FAF765FD00B106E0EA
:105A8000D4E90002811D11A002F038F900BF0C34E6
:105A9000114800688442ECD310A002F02FF90020D6
:105AA00070BD000052542D546872656164207368A3
:105AB000656C6C20636F6D6D616E64733A0A0000F3
:105AC0005C0300205F5F636D645F0000252D31364D
:105AD00073202D2025730A00600300200A000000B7
